:020000040800F2
:1000000058040020610E000825110008271100087F
:100010002B1100082F110008331100080000000008
:100020000000000000000000000000003711000880
:1000300039110008000000003B110008790E00088B
:100040007B0E00089D0400087B0E00087B0E000854
:100050007B0E00087B0E00087B0E00087B0E00085C
:100060007B0E00087B0E00087B0E00087B0E00084C
:100070007B0E00087B0E00087B0E00087B0E00083C
:100080007B0E00087B0E00087B0E00087B0E00082C
:100090007B0E00087B0E00087B0E00087B0E00081C
:1000A0007B0E00087B0E00087B0E00087B0E00080C
:1000B0007B0E00087B0E00087B0E00087B0E0008FC
:1000C0007B0E00087B0E00087B0E00087B0E0008EC
:1000D0007B0E00087B0E0008510A00087B0E00080A
:1000E0007B0E00087B0E00087B0E00087B0E0008CC
:1000F0007B0E00087B0E00087B0E00087B0E0008BC
:100100007B0E00087B0E00087B0E00087B0E0008AB
:100110007B0E00087B0E00087B0E00087B0E00089B
:100120007B0E00087B0E00087B0E00087B0E00088B
:10013000DFF80CD002F01CFC004800476102000808
:10014000580400202DE9F04106460F460024002502
:100150003946304600F046FE122000F0BCF9044655
:100160000BE0142000F0D3FB122000F0B4F9044699
:10017000681CC5B26F2D00DD01E0002CF1D000BF7E
:10018000FF21122000F0FCFA082C02D10120BDE86A
:10019000F0810020FBE770B50446002500264220D0
:1001A00000F099F9054600F09AFD122000F093F94D
:1001B00005460CE0142000F0AAFB122000F08BF999
:1001C0000546701CC6B26F2E01DD002070BD002DEB
:1001D000F0D0402D16D1102000F07DF905462946BB
:1001E0000D2000F0CDFA132000F075F905462A46DF
:1001F0002146002000F0D4F9FF21122000F0C0FABF
:100200000120E3E7602D0DD11D2000F064F920707E
:10021000132000F060F960700D2000F05CF9A07010
:100220000220D3E70320D1E710B500F057FB00F020
:100230007FF800F004FB00F005F900F08FF84FF4B0
:10024000E13000F0B5FB4FF40061354801F0E9FC06
:100250004FF40061324801F0E2FC00F08AFD10BD6D
:100260000EB5FFF7E1FF3CE0002403E000200DF8AD
:100270000400641C0C2CF9DB00BF4FF4006128481B
:1002800001F0CFFC4FF40061254801F0C8FC00F0FC
:1002900070FD6846FFF77FFF0546012DEDD100BFD9
:1002A00000BF9DF8000018B10C216846FFF74AFF17
:1002B000002408E0642000F02AFB1DF8041019480F
:1002C00001F0D8FA641C0C2CF4DB002016490860FD
:1002D000002404E00020154921F81400641C052CBA
:1002E000F8DBC1E770B504460D46E1B20D4801F0F8
:1002F000C1FA00BF0B48008800F080000028F9D048
:10030000204670BD00BF0748008800F0200000288C
:10031000F9D00448001D0088C0F3080070470000B1
:100320000008014000440040040000204800002074
:1003300008B50121042001F0FDF84FF40060ADF88C
:10034000000010208DF8030003208DF8020069469C
:10035000014801F0B7FB08BD0008014000B585B0B9
:100360000121042001F0E6F80121480701F0EFF82F
:100370001020ADF8100000208DF8130003208DF838
:10038000120004A92C4801F09DFB10212A4801F01D
:1003900046FC3C20009000200190029003906946AA
:1003A00001F0E9FC0121002001F002FD00210846D6
:1003B00001F05FFD05B000BD2DE9F05F82465046BB
:1003C00002F0DCF980464FF066321C4B02F056F921
:1003D000064600221A4B02F0DFF8044602F0DBF971
:1003E0001FFA80FB5946002001F043FD0121002047
:1003F00001F002FDBDE8F09F2DE9F05F8246504616
:1004000002F0E2F980464FF066320C4B02F036F90A
:10041000064600220A4B02F0BFF8044602F0BBF980
:100420001FFA80FB5946002001F023FD0121002026
:1004300001F0E2FCBDE8F09F0008014066660A405A
:100440000000B0400EB50121080701F080F801203E
:100450008DF800008DF8010000208DF802000120C9
:100460008DF80300684600F0F4FD01A800F0BBFE23
:100470004FF48030019000208DF8080008208DF89E
:10048000090001208DF80A0001A800F065FEE020B7
:1004900001F03DFD012001F037FD0EBD10B54FF01C
:1004A0001131002000F0F2F94FF4803000F0BAFE74
:1004B00018B1FF21034801F0DDF94FF4803000F05E
:1004C000C2FE10BD00440040002000E0401CB0F51A
:1004D000007FFBD370472DE9F0410446002600253C
:1004E0000027FFF7F1FF4FF40050E7490860401084
:1004F000091F0860FFF7E8FF4FF48050E2490860E9
:1005000004F07F0400BF1DE004F08000802804D1C7
:100510000002DD49091F086003E04FF40040DA499A
:100520000860FFF7D1FF4FF40050D749091F08605A
:10053000FFF7CAFF6006040E4FF40050D24908606E
:10054000681CC5B2082DDFDB00251DE07006060E15
:10055000FFF7BAFF4FF40050CB49091F0860CA48A3
:100560000C38006800F48040B0F5804F01D10127BD
:1005700000E00027F019C6B2FFF7A6FF4FF40050C5
:10058000C1490860681CC5B2082DDFDBFFF79CFF7E
:100590004FF48050BC49091F08603046BDE8F08127
:1005A0002DE9F0470446884691460026002500279D
:1005B000AA46FFF789FF4FF40050B3490860401086
:1005C000091F0860FFF780FF4FF48050AE490860B4
:1005D00004F07F0400BF1DE004F08000802804D1F7
:1005E0000002A949091F086003E04FF40040A64932
:1005F0000860FFF769FF4FF40050A349091F086026
:10060000FFF762FF6006040E4FF400509E49086039
:10061000681CC5B2082DDFDB00272CE04FF48050AA
:1006200099490860002520E07006060EFFF74CFF90
:100630004FF400509449091F086093480C38006833
:1006400000F48040B0F5804F02D14FF0010A01E084
:100650004FF0000A06EB0A00C6B2FFF735FF4FF471
:10066000005089490860681CC5B2082DDCDB08F819
:100670000760781CC7B24F45D0DBFFF725FF4FF46A
:1006800080508149091F0860BDE8F0872DE9F047D7
:1006900004460F4690464FF0000900260025FFF75C
:1006A00013FF4FF400507849086080000860C010C4
:1006B000091F0860FFF708FF4FF480507249086077
:1006C00044F0800400BF1DE004F08000802804D1C5
:1006D00000026D49091F086003E04FF400406A49B9
:1006E0000860FFF7F1FE4FF400506749091F0860EA
:1006F000FFF7EAFE6006040E4FF4005062490860FE
:10070000681CC5B2082DDFDB00262BE017F8069029
:1007100000251FE009F08000802804D100025A491A
:10072000091F086003E04FF4004057490860FFF7D5
:10073000CBFE4FF400505449091F0860FFF7C4FE78
:100740004FEA49604FEA10694FF400504E49086083
:10075000681CC5B2082DDDDB4FF00009FFF7B4FEC1
:10076000701CC6B24645D1DB4FF480504649091F84
:100770000860C000091D0860FFF7A6FEBDE8F0870D
:100780002DE9F04104460E4637460025FFF79CFE52
:100790004FF400503C49086040100860FFF794FE99
:1007A00044F0800400BF1DE004F08000802804D1E4
:1007B00000023549091F086003E04FF40040324948
:1007C0000860FFF781FE4FF400502F49091F0860B1
:1007D000FFF77AFE6006040E4FF400502A490860C5
:1007E000681CC5B2082DDFDB00251DE007F0800086
:1007F000802804D100022449091F086003E04FF457
:10080000004021490860FFF75FFE4FF400501E4989
:10081000091F0860FFF758FE7806070E4FF40050D6
:1008200019490860681CC5B2082DDFDBFFF74CFED4
:100830004FF480501449091F0860BDE8F08108B5E5
:100840000121082000F076FE4FF43040ADF80000A2
:1008500003208DF8020010208DF8030069460A4835
:10086000143801F02FF94FF480500749091F086030
:10087000FFF72AFE4FF4005003490860800008602B
:10088000FFF722FE08BD0000140C014070B50446BD
:100890000D46042601F0AFFB352001F047FE0E485F
:1008A00001F0EEFB0646042E06D10B4901EB440095
:1008B000294601F0B5FC064601F0A9FB70BD70B5F4
:1008C00004460D461646044800EB440132462846CD
:1008D00001F050FE304670BD00F8070810B56FF00B
:1008E000040000F000FC2E4800682E49B0FBF1F037
:1008F0002D4908700846007800EB4001C1EBC0109C
:100900004FF6FF7101EAC0002849088010BD01467A
:10091000254A12784A434FF0E0235A6100229A6137
:100920001A46126942F001021A6100BF4FF0E0223C
:10093000106900F001021AB100F48032002AF5D0EB
:100940004FF0E022126922F001024FF0E0231A6119
:1009500000229A6170470146144A12884A434FF0B8
:10096000E0235A6100229A611A46126942F001029C
:100970001A6100BF4FF0E022106900F001021AB1C5
:1009800000F48032002AF5D04FF0E022126922F004
:1009900001024FF0E0231A6100229A6170470000C3
:1009A0002000002000127A00000000200200002039
:1009B00010B586B004460121042000F0BBFD0121E2
:1009C000480400F0C4FD0820ADF8140004208DF8A0
:1009D000170005A95F4801F075F80420ADF8140070
:1009E00003208DF8160018208DF8170005A9594826
:1009F00001F068F826208DF8100003208DF8110012
:100A000002208DF8120001208DF8130004A800F0D8
:100A100020FB4FF4E13000900020ADF80400ADF869
:100A20000600ADF80800ADF80C000C20ADF80A0087
:100A30006946494800F025FE012240F2255146480A
:100A400000F0B7FE0121444800F0A7FE06B010BD3B
:100A50002DE9F04786B020213F4800F079FF0128BA
:100A600074D13D4800F00AFF01463C480268006826
:100A7000401C3A4B18603A4820F81210184600689B
:100A8000052863D100201946086035480078C0B9B0
:100A9000334844888588C688B0F808904FF07F4076
:100AA00000EA04604FF47F0101EA054108444FF475
:100AB0007F4101EA0621084409F0FF010844294961
:100AC000086027480078FF2824D1042204A90020C8
:100AD000FFF7F5FE6420FFF71AFF9DF810101E487F
:100AE00000F0C8FE6420FFF712FF9DF811101A48AD
:100AF00000F0C0FE6420FFF70AFF9DF812101648B0
:100B000000F0B8FE6420FFF702FF9DF813101248B2
:100B100000F0B0FE12480078012817D110498878FB
:100B200001F01BFE0022104BCDE9000101F0A6FDF3
:100B300007464FF066320D4B01F02EFDCDE9020164
:100B400001F055FE82465046FFF756FC06B0BDE860
:100B5000F08700000008014000440040040000202D
:100B600048000020080000200000704066660A402F
:100B7000014605E0002000E0401CB0F57A7FFBDB79
:100B80000A00A1F10101F5D1704770B505460120B9
:100B9000FFF7A1FC044604F0F8042C432146012091
:100BA000FFF7EEFD70BD10B5A74801780620FFF7EE
:100BB000E7FDA54841780720FFF7E2FDA2488178CC
:100BC0000820FFF7DDFD10BD70B504463120FFF7AA
:100BD00082FC054605F0F80040EA0405294631206C
:100BE000FFF7CEFD70BD70B504460320FFF7ECFFA4
:100BF0001E20FFF770FC0546284664F31F10C5B29F
:100C000029461E20FFF7BCFD70BD70B504461D20AF
:100C1000FFF761FC054605F0F10040EA4400C5B26B
:100C200029461D20FFF7ACFD70BD70B504461D20A0
:100C3000FFF751FC0546284664F31F10C5B229464C
:100C40001D20FFF79DFD70BD70B504461D20FFF708
:100C500042FC054605F0FE0040EA040529461D2039
:100C6000FFF78EFD70BD10B5044621462220FFF728
:100C700087FD10BD38B504461E20FFF72CFC8DF80B
:100C800000001F20FFF727FC8DF801009DF80000F1
:100C900000F0FC00032101EA14210843C0B28DF8E2
:100CA0000000E0B28DF801009DF800101E20FFF753
:100CB00067FD9DF801101F20FFF762FD38BD70B57C
:100CC00004462620FFF707FC054605F0F70040EA3A
:100CD000C400C5B229462620FFF752FD70BD10B5ED
:100CE0000120FFF752FF9F211120FFF749FDFF214F
:100CF0002420FFF745FD00214020FFF741FD0021A2
:100D00004120FFF73DFD80210F20FFF739FD8021B5
:100D10000D20FFF735FD0520FFF737FF10BD70B53B
:100D200004461E20FFF7D7FB054605F0FB0040EA0E
:100D30008400C5B229461E20FFF722FD70BD70B5A4
:100D400005460120FFF7C7FB044604F07F042C434F
:100D500021460120FFF714FD70BD10B50446872120
:100D60004D20FFF70DFD3948015D0920FFF708FD13
:100D700010BD10B50020FFF708FF8020FFF7DFFF50
:100D80000120FFF702FF00214020FFF7F9FC0021BE
:100D90004020FFF7F5FC00214120FFF7F1FCFFF7B1
:100DA00002FF2B480078FFF7D8FF2A480078FFF7AA
:100DB0001AFF29480078FFF728FF0120FFF7AFFF4F
:100DC00026480078FFF731FF0020FFF73DFFFF20A6
:100DD000FFF749FF40F2FF30FFF74CFF0120FFF71C
:100DE0006EFF10BD70B504460D460120FFF7CDFE25
:100DF00000212420FFF7C4FCF7211120FFF7C0FCDD
:100E000029462220FFF7BCFC00210E20FFF7B8FC8A
:100E100000210D20FFF7B4FC002606E02178002019
:100E2000FFF7AEFC641C701CC6B2AE42F6DB40217C
:100E30000846FFF7A5FC00214120FFF7A1FC032095
:100E4000FFF7A3FE70BD0000140000200C0000207E
:100E50001700002018000020190000201A000020B0
:100E60000648804706480047FEE7FEE7FEE7FEE744
:100E7000FEE7FEE7FEE7FEE7FEE7FEE7470F0008B6
:100E8000310100080EB500200290019000906548E5
:100E9000006840F00100634908600846006800F0FF
:100EA000020010B10120019001E0002001900198A2
:100EB000012843D15C48006840F010005A4908609E
:100EC0000846006820F0030008600846006840F00B
:100ED000020008605348406852494860084640682C
:100EE00048600846406840F48060486008464068B2
:100EF00020F47C1048600846406840F4E0104860E8
:100F00000846006840F08070086000BF45480068EF
:100F100000F000700028F9D04248406820F003003B
:100F2000404948600846406840F00200486000BF01
:100F30003C48406800F00C000828F9D10EBD10B5FF
:100F4000FFF7A0FF10BD10B53648006840F0010063
:100F500034490860084640683449084031494860CF
:100F600008460068324908402E4908600846006873
:100F700020F4802008600846406820F4FE004860A5
:100F80004FF41F008860FFF7DAFF4FF00060294937
:100F9000086010BD10B5002100200022214B5B68C5
:100FA00003F00C0121B1042906D0082928D107E05B
:100FB000214B224C236027E01F4B204C236023E071
:100FC000184B5B6803F47010164B5B6803F48032B7
:100FD000022303EB904022B9194B4343174C236083
:100FE0000DE0104B5B6803F4003323B1144B434313
:100FF000124C236003E0104B4343104C236003E08A
:101000000D4B0E4C236000BF00BF064B5B68C3F363
:1010100003130C4CE15C094B1B68CB40074C23606D
:1010200010BD000000100240002002400000FFF848
:10103000FFFFF6FE08ED00E000127A00200000201D
:1010400000093D002400002031490143314A11606C
:10105000704770B5002100230F22C47804B32D4CD3
:10106000246804F4E064C4F5E064210AC1F10403D7
:10107000CA40447804FA03F18478144021430901FA
:10108000254C0678A155047804F01F050124AC40D6
:1010900005786D11AD0005F1E025C5F8004109E0C6
:1010A000047804F01F050124AC401C4D067876112D
:1010B00045F8264070BD1A4A0A400243154B1B1FD3
:1010C0001A60704739B1134A121D12680243114B5E
:1010D0001B1D1A6006E00F4A121D126882430D4B59
:1010E0001B1D1A607047042808D14FF0E0210969E0
:1010F00041F004014FF0E022116107E04FF0E021E0
:10110000096921F004014FF0E022116170470000ED
:101110000000FA050CED00E000E400E080E100E0F2
:1011200080FFFF1F704700BFFEE700BFFEE700BF64
:10113000FEE700BFFEE77047704770470020444954
:101140000860091D0860091D0860091D0860414804
:101150003F4914310860704700213D498279002AD7
:101160003AD00A46126803689A430B461A600A1D71
:10117000126803689A430B1D1A60027911440A68C9
:1011800003681A430A60324A0832126803689A43B5
:101190002F4B08331A601A1D126803689A432C4BB0
:1011A0000C331A604279102A0ED11A1F1268036894
:1011B0001A43274B08331A601A1D126803681A4332
:1011C000234B0C331A600DE02149427911440A681F
:1011D00003681A430A6005E0027911440A6803684B
:1011E0009A430A6070470021016001710C2141712E
:1011F0000021817170471649103109680143144A72
:1012000010321160704701460020114A14321268F2
:101210000A400AB1012000E0002070470C49143157
:1012200008607047014600200022094B1B6803EA52
:101230000102074B14331B680B4013B10AB10120A4
:1012400000E0002070470249143108607047000038
:1012500000040140FFFF0F00DF48006840F001007C
:10126000DD49086008464068DC490840DA494860C2
:1012700008460068DA490840D7490860084600680F
:1012800020F4802008600846406820F4FE00486092
:101290004FF41F0088607047CF49096821F48031FE
:1012A000CD4A11601146096821F480211160B0F522
:1012B000803F03D0B0F5802F0ED106E0C649096803
:1012C00041F48031C44A116007E0C349096841F420
:1012D000A021C14A116000E000BF00BF704710B5F7
:1012E00001460022002300204A11012A02D1BA4CF3
:1012F000236806E0022A02D1B74C236A01E0B64C0B
:10130000636A01F01F02012494401C400CB10120CB
:1013100000E0002010BD38B500200090002400251A
:1013200000BF3120FFF7DBFF05460098401C00900E
:101330000098B0F5A06F01D0002DF2D03120FFF75A
:10134000CEFF08B1012400E00024204638BD01464C
:101350000020A14A106820F0F80040EAC1001060A7
:101360007047A04908607047024600209A4B5868B1
:1013700020F47C1042EA01031843974B58607047F1
:1013800098490866704701460020934A506820F04B
:1013900003000843506070478F48406800F00C001D
:1013A0007047014600208C4A506820F0F000084346
:1013B0005060704701460020874A506820F4E06082
:1013C00008435060704701460020834A506820F46B
:1013D000605040EAC1005060704729B17E4A527A9D
:1013E00002437D4B5A7204E07B4A527A82437A4B25
:1013F0005A7270477B49D831086070470146002017
:10140000754A506820F440400843506070470021FE
:10141000714A20321170704A82F82010012802D0DF
:1014200004280AD104E001216B4A2032117005E042
:101430000521694A2032117000E000BF00BF7047EB
:101440006949086070476449096A0143624A116248
:101450007047654944390860704730B50021002263
:10146000002400235C4D6D6805F00C0121B10429B6
:1014700005D0082923D105E05C4D056022E05B4DD5
:1014800005601FE0544D6D6805F47012524D6D6893
:1014900005F48034022505EB92421CB9544D5543A6
:1014A00005600BE04C4D6D6805F400351DB1504DE5
:1014B0005543056002E04D4D5543056002E04B4D3C
:1014C000056000BF00BF444D6D6805F0F0010909DB
:1014D000484D6B5C0568DD4045603F4D6D6805F427
:1014E000E061090A434D6B5C4568DD4085603A4D1B
:1014F0006D6805F46051C90A3E4D6B5C4568DD407E
:10150000C560354D6D6805F44041890B3A4D6B5C03
:10151000C568B5FBF3F5056130BD29B12E4A5269A6
:1015200002432D4B5A6104E02B4A526982432A4BF5
:101530005A61704729B1284A92690243264B9A6141
:1015400004E0254A92698243234B9A61704729B18E
:10155000214AD2690243204BDA6104E01E4AD26973
:1015600082431D4BDA61704729B11B4AD26802439E
:10157000194BDA6004E0184AD2688243164BDA60ED
:10158000704729B1144A12690243134B1A6104E0EF
:10159000114A12698243104B1A617047124940394F
:1015A000086070470F49C86470470B49C87170479D
:1015B0000948406A40F08070074948627047014618
:1015C0000020054A92680A400AB1012000E000208C
:1015D0007047014988727047001002400000FFF810
:1015E000FFFFF6FE000042428004424200127A00F1
:1015F00000093D00340000204400002010B50446DE
:10160000FB48844209D101218803FFF7ADFF002187
:101610004FF48040FFF7A8FF32E0F648844209D13A
:1016200001214804FFF7ADFF00214FF40030FFF720
:10163000A8FF25E0F048844209D101218804FFF782
:10164000A0FF00214FF48020FFF79BFF18E0EB483C
:10165000844209D10121C804FFF793FF00214FF410
:101660000020FFF78EFF0BE0E548844208D10121FE
:101670000805FFF786FF00214FF48010FFF781FF78
:1016800010BD2DE9F04786B005460E460024A2465F
:1016900000BFA1460027B08900B100BF2F462C8AA9
:1016A0004CF6FF700440F08804432C82AC894EF65F
:1016B000F3100440B088318908437189084304431A
:1016C000AC81AC8A4FF6FF400440B0890443AC8241
:1016D00001A8FFF7C2FEC648874202D1DDF810A07C
:1016E00001E0DDF80CA0A88900F4004040B10AEB4D
:1016F000CA0000EB0A1031684900B0FBF1F807E0BE
:101700000AEBCA0000EB0A1031688900B0FBF1F85F
:101710006420B8FBF0F004012009642101FB10896A
:10172000A88900F4004040B1322000EBC900B0FBB2
:10173000F1F000F00700044308E0322000EB09104C
:101740006421B0FBF1F000F00F0004432C8106B0DF
:10175000BDE8F0874FF41651016000218180C180FF
:1017600001810C21418100218181704710B5024621
:101770000020108A4FF2FF0318400B884C88234347
:101780008C882343CC8823431843108210BD00214A
:10179000018041808180C180704721B1828942F4FB
:1017A0000052828104E082894DF6FF731A408281E3
:1017B0007047F0B50346002400260025002040F6BF
:1017C0006A17B94200D100BF1846C1F3421401F0B4
:1017D0001F06012707FA06F5012C01D10C3004E0A1
:1017E000022C01D1103000E014301AB107682F43E9
:1017F000076002E00768AF430760F0BD1AB1838A53
:101800000B43838202E0838A8B4383827047028A80
:101810004FF6F0731A400282028A0A43028270472E
:1018200082894FF2FF731A40828182890A43828142
:10183000704721B1828942F00202828104E08289EC
:101840004FF6FD731A4082817047028A4FF6DF73AC
:101850001A400282028A0A430282704721B1028A38
:1018600042F48042028204E0028A4BF6FF731A407F
:1018700002827047C1F3080282807047014688885F
:10188000C0F308007047818941F0010181817047F0
:10189000028BD2B20283028B42EA0122028370479A
:1018A000028B02F47F420283028B0A430283704759
:1018B00021B1828A42F02002828204E0828A4FF6BD
:1018C000DF731A408282704721B1828A42F010028F
:1018D000828204E0828A4FF6EF731A408282704758
:1018E00021B1828A42F00802828204E0828A4FF6A5
:1018F000F7731A408282704721B1828942F4004214
:10190000828103E08289C2F30E028281704721B195
:10191000828A42F40062828204E0828A4FF2FF737C
:101920001A4082827047828A4FF6FB731A40828285
:10193000828A0A438282704721B1828A42F002027F
:10194000828204E0828A4FF6FD731A4082827047D9
:1019500002460020B1F5007F00D100BF13880B4084
:101960000BB1012000E00020704701F40072B2F5D5
:10197000007F00D100BFCA430280704770B50246A5
:10198000002400230025002040F66A16B14200D151
:1019900000BFC1F3421501F01F03012606FA03F34D
:1019A000012D02D19689334006E0022D02D1168A1C
:1019B000334001E0968A33400C12012606FA04F403
:1019C0001688344013B10CB1012000E0002070BD36
:1019D00010B50022002340F66A14A14200D100BFD6
:1019E0000A1201249440A3B2DC43048010BD00001D
:1019F000003801400044004000480040004C0040D6
:101A00000050004010B50446CC48844208D1012162
:101A10000420FFF7A9FD00210420FFF7A5FD46E003
:101A2000C748844208D101210820FFF79DFD00210D
:101A30000820FFF799FD3AE0C248844208D101210D
:101A40001020FFF791FD00211020FFF78DFD2EE003
:101A5000BD48844208D101212020FFF785FD0021E7
:101A60002020FFF781FD22E0B848844208D10121FF
:101A70004020FFF779FD00214020FFF775FD16E0BB
:101A8000B348844208D101218020FFF76DFD002179
:101A90008020FFF769FD0AE0AE48844207D10121AA
:101AA0008015FFF761FD0021A015FFF75DFD10BD5A
:101AB00010B501210846FFF757FD00210120FFF76F
:101AC00053FD10BD2DE9F0410246002500260020FF
:101AD00000230024002791F803C00CF00F0591F8B3
:101AE00003C00CF0100CBCF1000F03D091F802C041
:101AF0004CEA050591F800C0BCF1000F31D0146824
:101B000000202BE04FF0010C0CFA00F3B1F800C0FC
:101B10000CEA03069E4220D183004FF00F0C0CFA12
:101B200003F7BC4305FA03FC4CEA040491F803C034
:101B3000BCF1280F06D14FF0010C0CFA00FCC2F8E2
:101B400014C00AE091F803C0BCF1480F05D14FF072
:101B5000010C0CFA00FCC2F810C0401C0828D1D3BC
:101B60001460B1F800C0BCF1FF0F34DD54680020F0
:101B70002EE000F1080C4FF0010808FA0CF3B1F860
:101B800000C00CEA03069E4221D183004FF00F0CE7
:101B90000CFA03F7BC4305FA03FC4CEA040491F881
:101BA00003C0BCF1280F05D100F1080C08FA0CF8AD
:101BB000C2F8148091F803C0BCF1480F07D100F1BE
:101BC000080C4FF0010808FA0CF8C2F81080401C0D
:101BD0000828CED35460BDE8F0814FF6FF71018034
:101BE000022181700421C170704702460020936871
:101BF0000B400BB1012000E00020704701468868CF
:101C000080B2704702460020D3680B400BB1012020
:101C100000E0002070470146C86880B2704701614B
:101C20007047416170470AB1016100E0416170474E
:101C3000C16070474FF480320A43826181618261E2
:101C400082698269704702460020434B18684FF64C
:101C50008073184040EA021008433F4B18607047F9
:101C60003E49C8617047F0B50A46002300240021B0
:101C7000002500F00046B6F1004F02D1364EF16962
:101C800001E0354E7168C0F3034583B200F440169D
:101C9000B6F5401F08D121F070612F4E766826F00E
:101CA00070662D4F7E6012E000F48016B6F5801F3E
:101CB00006D1032606FA05F4A14341F0706106E05F
:101CC000460D360103FA06F6B14341F0706122B1C8
:101CD000460D360103FA06F6314300F00046B6F130
:101CE000004F02D11C4EF16101E01B4E7160F0BD4E
:101CF00030B500228B071C0F0F2303FA04F2164B9A
:101D000008338C1053F824309343134C08348D104F
:101D100044F8253023468C1053F824308C07240FC8
:101D200000FA04F423430C4C08348D1044F8253099
:101D300030BD0A49DC3108607047000000080140EE
:101D4000000C014000100140001401400018014047
:101D5000001C014000200140000001400000204222
:101D600010B501214807FFF70CFC00214FF000508F
:101D7000FFF707FC10BD30B5002200235A4C226843
:101D800040F6FE748440A243D1E900452C438D689F
:101D90002C43CD6844EA050303FA00F42243524C75
:101DA000226030BD0021016041608160C1607047E8
:101DB00039B14D4A1268012383401A434A4B1A60D5
:101DC00006E0494A1268012383409A43464B1A6051
:101DD000704741B1444A12684FF4805383401A431C
:101DE000414B1A6007E0404A12684FF48053834029
:101DF0009A433D4B1A60704710B551B13A4A121DD3
:101E0000126804090123A3401A43374B1B1D1A60B3
:101E100009E0354A121D126804090123A3409A43C0
:101E2000314B1B1D1A6010BD40B12F49091D0968B7
:101E300041F003012C4A121D116007E02A49091DD7
:101E4000096821F00301284A121D1160704710B57E
:101E50003AB1254B1B6801FA00F42343224C23605E
:101E600006E0214B1B6801FA00F4A3431E4C2360DB
:101E700010BD08B5002200921B4A009200F1080232
:101E8000009B1A440092009A116008BD08B5002218
:101E90000092154A009200F11402009B1A4400922D
:101EA000009A116008BD30B500240023082802D133
:101EB00042EA012401E042EA01440B4B00F1200513
:101EC0002B441C6030BD08B5014600200090064838
:101ED00000902C2000EB9100009A10440090009894
:101EE000006880B208BD00000074004010B50121F8
:101EF0000807FFF746FB00214FF08050FFF741FB3A
:101F000010BD2A4908627047284908617047014698
:101F10000020274A106820F0E00008431060704756
:101F20002249A0310860704710B502460020204BBE
:101F3000186820F00300104318601E4B1B6843F024
:101F400004031C4C2360012901D130BF00E020BFF5
:101F5000184B1B6823F00403164C236010BD144873
:101F6000006840F00400124908600846006840F02C
:101F7000020008600F48006840F004000D49086046
:101F800000BF00BF30BF704701460020084A5268BA
:101F90000A400AB1012000E00020704704490968A6
:101FA00041EA8001024A11607047000000000E42C1
:101FB0000070004010ED00E001460020FE4A10686D
:101FC00000F03800084310607047FB49096821F0B1
:101FD0000801F94A11601146096801431160704710
:101FE000F549096821F01001F34A116011460968AA
:101FF000014311607047F148EF494860F04848607C
:102000007047EE48EC494860ED4848607047EA4840
:10201000006940F08000E84908617047E6480069BF
:1020200040F08000E449086170470420E249C96833
:1020300001F0010109B101200EE0DF49C96801F09A
:10204000040109B1022007E0DB49C96801F0100171
:1020500009B1032000E00420704700B502460423C4
:10206000FFF7E3FF034603E0FFF7DFFF0346521EDF
:10207000012B01D1002AF7D102B90523184600BD72
:1020800030B5044604254FF43020FFF7E6FF05463F
:10209000042D17D1C848006940F00200C649086104
:1020A00008464461006940F0400008614FF4302068
:1020B000FFF7D3FF0546C048006941F6FD710840AF
:1020C000BD490861284630BD10B504244FF43020C6
:1020D000FFF7C3FF0446042C16D1B748006940F04F
:1020E0000400B54908610846006940F040000861F5
:1020F0004FF43020FFF7B1FF0446AF48006941F6C6
:10210000FB710840AC490861204610BD00B502468D
:102110000423FFF78AFF034603E0FFF786FF034629
:10212000521E012B01D1002AF7D102B9052318460E
:1021300000BD10B504244FF43020FFF7E7FF04463C
:10214000042C16D19C48006940F004009A490861AB
:102150000846006940F0400008614FF43020FFF766
:10216000D5FF04469448006941F6FB710840924946
:102170000861204610BD00208F49C96901F00201A5
:1021800009B1012000E00020704730B5A5250424E6
:10219000FFF7F1FF00B100254FF43020FFF75DFF9E
:1021A0000446042C3AD18548834988608448886075
:1021B0000846006940F0200008610846006940F0C8
:1021C000400008614FF43020FFF747FF0446042C1D
:1021D0001BD17948006941F6DF71084076490861F2
:1021E0000846006940F01000086176480580E0026A
:1021F000FFF733FF0446052C10D06F48006941F605
:10220000EF7108406C49086108E0052C06D06A4867
:10221000006941F6EF71084067490861204630BD0A
:1022200078B506460C46042500200090E802FFF72A
:1022300014FF0546042D24D15F48006940F00100D9
:102240005D4908613480E802FFF707FF0546042D69
:1022500010D1B01C0090200C00990880E802FFF714
:10226000FCFE05465448006941F6FE71084052499B
:10227000086106E05048006941F6FE7108404E4989
:102280000861284678BD70B504460D460426F00264
:10229000FFF7E3FE0646042E11D14748006940F0DF
:1022A0000100454908612580F002FFF7D6FE064689
:1022B0004148006941F6FE7108403F4908613046D7
:1022C00070BD70B505460E460424E002FFF7C5FE5A
:1022D0000446042C17D1394837498860384888604B
:1022E0000846006940F0100008612E80E002FFF708
:1022F000B4FE0446052C06D02F48006941F6EF7164
:1023000008402D490861204670BD2DE9F043044680
:102310004FF6FF763746B046B1460425E443E6B2B1
:10232000C4F30727C4F307484FEA1469E802FFF72C
:1023300094FE0546042D49D120481F498860204855
:1023400088600846006940F010000861FF2E06D042
:102350001C4808300680E802FFF77FFE0546042D82
:1023600008D1FF2F06D017480A300780E802FFF790
:1023700074FE0546042D0AD1B8F1FF0F07D01148AD
:102380000C30A0F80080E802FFF767FE0546042D38
:102390000AD1B9F1FF0F07D00A480E30A0F800901B
:1023A000E802FFF75AFE0546052D0FD002480069E6
:1023B00041F6EF71084007E0002002402301674525
:1023C000AB89EFCD00F8FF1F664908612846BDE8DC
:1023D000F08330B5054604244FF43020FFF73DFE6E
:1023E0000446042C41D160485E4988605F4888609B
:1023F0000846006940F0200008610846006940F086
:10240000400008614FF43020FFF727FE0446042CFB
:1024100022D15448006941F6DF71084051490861F2
:102420000846006940F0100008611DB100205049C5
:10243000088002E0A5204E4908804FF43020FFF7C5
:102440000CFE0446052C10D04648006941F6EF7199
:1024500008404449086108E0052C06D0414800695D
:1024600041F6DF7108403F490861204630BDF0B5B4
:1024700005460E46174604243B483A4988603B48C7
:102480008860E002FFF7E9FD0446042C19D13548C5
:10249000006940F010003349086147F0F80030430C
:1024A00028433349891C0880E002FFF7D6FD044623
:1024B000052C06D02B48006941F6EF7108402949E8
:1024C00008612046F0BD2748C0698008704725484C
:1024D000006A704700202349096801F0200109B112
:1024E000012000E00020704729B11E4A1269024312
:1024F0001C4B1A6104E01B4A12698243194B1A6192
:10250000704701460020012908D1164AD26902F01D
:1025100001020AB1012008E0002006E0114AD26859
:102520000A400AB1012000E0002070470D49C86050
:10253000704704200B49C96801F0010109B101206D
:102540000EE00849C96801F0040109B1022007E062
:102550000449C96801F0100109B1032000E004201A
:10256000704700000020024023016745AB89EFCD92
:1025700000F8FF1F40EA01039B0703D009E008C9E8
:10258000121F08C0042AFAD203E011F8013B00F838
:10259000013B521EF9D270472DE9FE4F81EA030438
:1025A00004F0004421F0004100944FF0000B23F0B0
:1025B000004350EA01045ED052EA03045BD0C3F347
:1025C0000A54C1F30A552C44A4F2F3340194A0FB3D
:1025D0000254C1F3130141F48011C3F3130343F414
:1025E000801301FB024400FB034E840A970A44EA6D
:1025F000815447EA8357A4FB076802958D0A05FBBF
:1026000007854FEA932C04FB0C542705029D4FEAE3
:10261000065847EA1637B5EB08056EEB070C870E30
:10262000920E47EA811742EA8312A7FB0201B6EB3A
:102630000B0164EB00042B0D43EA0C335E1844EBF2
:102640001C50DA465146E7FB0201C5F313044FEA7A
:102650000B3343EA14534FEA0432019C43EA060366
:10266000A4F10C040294009CCDE900B400F031F90F
:1026700003B0BDE8F08F00200146F9E72DE9F04DE9
:1026800081EA030404F0004B21F0004514464FF0AA
:10269000000A23F0004150EA050220D054EA01026A
:1026A0001DD0C5F30A570246C5F31303C1F3130047
:1026B000C1F30A5640F4801543F48013A7EB0608D3
:1026C000101BD64608F2FD3873EB050002D308F163
:1026D000010801E092185B41B8F1000F03DA002015
:1026E0000146BDE8F08D00204FF480110646844677
:1026F0000EE0171B73EB050705D3121B63EB0503F5
:1027000006434CEA010C49084FEA300092185B413D
:1027100050EA0107EDD152EA030012D082EA040028
:1027200083EA0501084305D0101BAB4106D2012204
:10273000002306E000224FF0004302E06FF00102A8
:1027400053101AEB06004CEB085110EB0A0041EB5A
:102750000B01BDE8F04D00F0ADB80EB5C10F80EA39
:10276000E0700844CA07002140F233438DE80E00B0
:102770000A460B4600F0ADF803B000BD0EB540F2BE
:10278000334102910021CDE900110A460B4600F0C9
:10279000A0F803B000BDC1F30A5210B5C1F3130194
:1027A00040F2FF3341F480119A4201DA002010BD5B
:1027B00040F233439A42A2F2334203DC524200F029
:1027C00032F810BD904010BD00F0004230F00040E3
:1027D0000AD0C10D01F56071C0F3160042EA015143
:1027E000C20840071143704700200146704701F0BE
:1027F000004330B421F0004150EA010206D00A0D36
:10280000A2F56072C1F31301002A02DC30BC002083
:102810007047440F44EAC104C100E01830BC00EB2B
:10282000C25000F010B8202A04DB203A21FA02F04E
:102830000021704721FA02F3D040C2F120029140FA
:102840000843194670470029A8BF7047401C49003B
:1028500008BF20F00100704710B4B0FA80FC00FA05
:102860000CF050EA010404BF10BC704749B1CCF130
:10287000200421FA04F411FA0CF118BF01212143BC
:102880000843A3EB0C01CB1D4FEA00614FEA102077
:1028900042BF002010BC704700EBC3501044002919
:1028A000A4BF10BC7047401C490008BF20F00100C5
:1028B00010BC704710B5141E73F1000408DA401CF8
:1028C00041F1000192185B411A4301D120F001004F
:1028D00010BD2DE9F04D92469B4611B1B1FA81F23F
:1028E00002E0B0FA80F22032904600F053F804463D
:1028F0000F4640EA0A0041EA0B0153465A46084394
:1029000013D0114653EA010019D0C8F140025046D5
:10291000FFF789FF05460E4650465946424600F0ED
:1029200039F8084305D0012004E020463946BDE8C7
:10293000F08D0020054346EAE0762C4337430A98A1
:102940006305E40AA0EB08000022FD0A44EA4754AC
:102950000A3002D500200146E9E701051019694156
:10296000DDE9084500196941BDE8F04DA2E7000026
:10297000064C074D06E0E06840F0010394E80700CC
:1029800098471034AC42F6D3FDF7D6FBD0290008A7
:10299000F0290008202A04DB203A00FA02F1002086
:1029A00070479140C2F1200320FA03F3194390408D
:1029B000704702E008C8121F08C1002AFAD1704708
:1029C0007047002001E001C1121F002AFBD17047AF
:1029D000F02900080000002048000000B22900088B
:1029E000382A00084800002010040000C22900080E
:1029F00000000000000000000000000080808083D4
:102A000086898C8F75800007070107000000000091
:102A100000A24A04000000000000000001020304BC
:102A20000607080900000000010203040102030474
:082A300006070809020406086C
:0400000508000131BD
:00000001FF
